:020000040800F2
:100000002845002045010008AB1100081B1100081D
:10001000A911000839020008F91A000800000000C0
:100020000000000000000000000000005D1A000851
:100030003B02000800000000CD1100085F1A000814
:100040005F0100085F0100085F0100085F01000810
:100050005F0100085F0100085F0100085F01000800
:100060005F0100085F0100085F0100085F010008F0
:100070005F0100085F0100085F0100085F010008E0
:100080005F0100085F0100085F0100085F010008D0
:100090005F0100085F0100085F0100085F010008C0
:1000A0005F0100085F0100085F0100085F010008B0
:1000B0005F0100085F0100085F0100085F010008A0
:1000C0005F0100085F0100085F0100085F01000890
:1000D0005F0100085F0100085F0100085F01000880
:1000E0005F0100085F0100085F0100085F01000870
:1000F0005F0100085F0100085F0100085F01000860
:100100005F0100085F0100085F0100085F0100084F
:100110005F0100085F0100085F0100085F0100083F
:100120005F0100085F0100085F0100085F0100082F
:10013000DFF80CD000F02AF8004800476D2C0008CA
:10014000284500200648804706480047FEE7FEE7AE
:10015000FEE7FEE7FEE7FEE7FEE7FEE7FEE7FEE777
:10016000B11A000831010008D2B201E000F8012BF9
:10017000491EFBD270470022F6E710B513460A4627
:1001800004461946FFF7F0FF204610BD064C074D08
:1001900006E0E06840F0010394E807009847103457
:1001A000AC42F6D3FFF7C8FFF0300008103100086A
:1001B0000146014800F049BD2400002010B5044864
:1001C00000F055FD042801D0012010BD002010BD15
:1001D0002400002082B001208DF800009DF800006E
:1001E000012802D0012002B07047024802B000F09E
:1001F00054BD00002400002038B5002400931346AD
:100200000A460146034800F0CDFD00B10124204616
:1002100038BD00002400002038B5002400931346A8
:100220000A460146034800F097FE00B1012420462B
:1002300038BD000024000020FEE77047002200F0D7
:1002400001B8000030B50E4B054601205C7A012C48
:1002500015D8587A00241C54587A03EB8000456066
:100260005D7A03F108002A54587A421C5A723030E1
:1002700008703A2048702F208870CC70002030BD64
:100280001C05002070B5044600F008F90546601C06
:1002900002D004480078044400F000F9401BA0425A
:1002A000FAD370BD080000202DE9F84FDFF8B8A19F
:1002B00000220AF1040B144601274FF00F090BF13D
:1002C000040E00BF0B6807FA04F52B40AB4274D153
:1002D000DFF898C14E68A6EB0C0866452BD00DDC04
:1002E000032E34D005DC36B3012E19D0022E2FD1C7
:1002F0001BE0112E16D0122E2AD119E0B8F5881F56
:1003000019D006DCB8F5803F15D0B8F5801F1FD195
:1003100011E0B8F5001F0ED0B8F5041F18D10AE09F
:10032000CA6815E0CA68121D12E0CA6808320FE0F8
:10033000CA680C320CE08A682AB1012A4FF0080220
:1003400003D0456104E0042202E0056100E00022E0
:10035000FF2B01D8064601E000F104064FEA8405B0
:1003600001D9A5F12005D6F800C009FA05F82CEA54
:10037000080C02FA05F54CEA050CC6F800C04D68F9
:10038000ED006AD53A4DAE6946F00106AE61AD6941
:1003900024F0030605F001050095364D06EB050C2B
:1003A000DCF80850A6074FEA167809FA08F6B543B4
:1003B000314EB04202D100261AE04EE02F4EB0423C
:1003C00001D1012614E02E4EB04201D102260FE0E9
:1003D0002C4EB04201D103260AE02B4EB04201D18F
:1003E000042605E0294EB04201D1052600E006268C
:1003F00006FA08F62E43CCF808604D68DAF800607B
:10040000ED03554601D51E4300E09E432E604D6826
:10041000AD0305D5DBF800601E43CBF8006004E0B7
:10042000DBF800509D43CBF800504D68DEF80060CB
:10043000ED02754601D51E4300E09E432E604D68D7
:10044000AD0205D5084D0C352E681E432E6004E024
:10045000054E0C3635689D433560641C102CFFF446
:1004600031AFBDE8F88F000000040140000011101A
:10047000001002400000014000080140000C014053
:10048000001001400014014000180140001C014010
:100490000AB1016170470904FBE700000148806868
:1004A000704700000800002002488168027811446B
:1004B0008160704708000020074810B5016841F0CE
:1004C00010010160032000F05FF8002000F006F842
:1004D00000F024F8002010BD0020024070B50D4D42
:1004E00004464FF47A712878B1FBF0F00A490968A4
:1004F000B1FBF0F000F0FDFD48B9102C07D200224E
:100500002146501E00F020F800206C6070BD0120D4
:1005100070BD00000800002014000020094808B544
:10052000816941F001018161816901F0010100915E
:10053000C16941F08051C161C06900F080500090F4
:1005400008BD000000100240F0B40E4B1B680C46C2
:10055000C3F30223C3F10705042D00D90425191D97
:10056000072901D2002300E0DB1E012606FA05F16F
:10057000491E214099409E40761E16403143F0BCF2
:1005800000F014BE0CED00E0064900F00702086818
:100590004FF6FF03184040EA0220034A1043086068
:1005A000704700000CED00E00000FA052DE9F0476F
:1005B000DFF83C8105460E46D8F8000000F0070041
:1005C000B0420CD2D8F8001021F007013143C8F82E
:1005D0000010D8F8000000F00700B04263D128787E
:1005E000444C800705D56068A96820F0F0000843F6
:1005F00060602878C00745D06868012816D0216857
:10060000022816D0890700294DDA616821F003011C
:1006100001436160FFF742FF6968074641F2883095
:1006200001290FD00229814619D027E021688903CA
:10063000E9E78901E7E700BFFFF730FFC11B494544
:1006400001D918E081466068C0F381000128F3D128
:1006500018E000BFFFF722FFC11B49450BD86068B7
:10066000C0F381000228F5D10CE000BFFFF716FFB0
:10067000C11B494502D90320BDE8F087606810F02E
:100680000C0FF3D1D8F80010404601F00701B14239
:100690000BD9016821F0070131430160006800F0C7
:1006A0000700B04201D00120E6E72878400705D5D1
:1006B0006068E96820F4E06008436060287800071B
:1006C00006D56068296920F4605040EAC100606086
:1006D00000F016F86168084AC1F30311515CC84084
:1006E000064908600020FFF7F9FE0020C4E700007B
:1006F00000200240001002404C300008140000208E
:1007000012A185B00FC98DE80F0014A0144A00682B
:1007100004905168134801F00C03042B10D0082BEF
:100720000ED1C1F38343C9031DF803000AD55168F4
:1007300004AAC1F34041515C0A4A5043B0FBF1F0B6
:1007400005B0704708494843FAE700000203040572
:10075000060708090A0B0C0D0E0F1010010200000D
:100760000010024000127A0000093D002DE9F84F08
:1007700004460078B94DC00748D06868C0F38100CE
:10078000012807D06868C0F38100022809D1686891
:10079000C00306D52868800338D5606800286FD06C
:1007A00034E06068B0F5803F0BD010B1B0F5A02FF9
:1007B00011D0286820F480302860286820F4802038
:1007C00002E0286840F480302860606888B1FFF754
:1007D00065FE064609E0286840F480202860F0E7BE
:1007E000FFF75CFE801B642875D828688003F7D566
:1007F0000CE0FFF753FE064605E000BFFFF74EFE94
:10080000801B6428F0D828688003F7D42078944EA1
:1008100080074FF001094FF000083BD5686810F0E1
:100820000C0F07D06868C0F38100022809D16868FE
:10083000C00306D42868800714D5206901281FD179
:1008400010E02069B0B1C6F80090FFF727FE074618
:1008500005E000BFFFF722FEC01B0228C4D82868AD
:100860008007F7D52868616920F0F80040EAC100E8
:1008700028600FE0C6F80080FFF710FE074606E08C
:10088000E9E000BFFFF70AFEC01B022823D8286852
:100890008007F7D4207800072CD57248A169D9B118
:1008A000C0F80090FFF7FAFD074604E0FFF7F6FDF9
:1008B000C01B02280FD8686A8007F7D56A484FF432
:1008C000FA510068B0FBF1F0009000BF0098411EA3
:1008D0000091FAD20EE080E0C0F80080FFF7DEFD64
:1008E000074604E0FFF7DAFDC01B022875D8686AE6
:1008F0008007F7D42078400760D5E8690027C0005A
:1009000008D4E86940F08050E861E869012700F008
:100910008050009055480168C90513D4016883468A
:1009200041F480710160FFF7B9FD824606E000BF27
:10093000FFF7B4FDA0EB0A0064284ED8DBF80000F6
:10094000C005F5D5E06801280AD008B1052813D004
:10095000286A20F001002862286A20F0040002E0E2
:10096000286A40F001002862E06841F2883B98B1B3
:10097000FFF794FD82460BE0286A40F004002862ED
:10098000EEE700BFFFF78AFDA0EB0A0159455AD8F0
:10099000286A8007F6D50CE0FFF780FD824605E067
:1009A000FFF77CFDA0EB0A0159454CD8286A800767
:1009B000F6D41FB1E86920F08050E861E06988B39F
:1009C0006968C1F38101022945D00228C6F8608018
:1009D00004D0FFF763FD044638E034E0FFF75EFD26
:1009E000074604E0FFF75AFDC01B02282BD82868F1
:1009F0008001F7D4206AB0F5803F05D16868A1680E
:100A000020F4003008436860D4E9080108436968AD
:100A100021F4741108436860C6F86090FFF73EFD4A
:100A2000044606E015E000BFFFF738FD001B022872
:100A300009D828688001F7D50BE000BFFFF72EFD2D
:100A4000001B022802D90320BDE8F88F2868800126
:100A5000F4D40020F8E70120F6E70000001002407F
:100A60000000424280044242140000200070004016
:100A7000F0B5426E120E93090B70C2F383034B70F4
:100A800002F003028A70426E120CCA70B0F8642041
:100A9000120A0A7190F864204A71826E4FF6FF7351
:100AA000120E03EA0212CA80826ECB88C2F307429A
:100AB00043EA1213CB8002F00F020A72B0F86820EA
:100AC000C2F30722D3094B72C2F380138B72C2F3B5
:100AD0004013CB72C2F300130B7300264E73446CA9
:100AE0004FF4007701236CB1012C43D0026840F22F
:100AF000FF519163816B41F08051816380F8343004
:100B00000120F0BD9207120D0A6190F868200C696F
:100B100044EA82020A61C26E0C69120E44EA92141F
:100B20000C61C2F3C2040C7502F007024A75C26E72
:100B3000C2F3074254098C75C2F38204CC75920744
:100B4000520F0A76B0F86C20C2F307240A7E42EAFC
:100B5000D4120A760A69521C42650D7EAD1CAA4069
:100B600042650D7A03FA05F585656D0A6A43C0E9A9
:100B700017271CE090F868209206920A0A61C26E5C
:100B80000C69120E44EA02220A61C26E0C69C2F3B9
:100B9000074214430C61B0F86C20C2F307240A69C1
:100BA000521C4FEA82224265C0E916720766C4F3FE
:100BB000801201F8192F4FEA84624FEA52624A709C
:100BC00010F86C2F4C7844EAD2144C7002F07F027B
:100BD0008A7042684FEA12624FEAD214CC70C2F3B4
:100BE00041140C71C2F382044C714FEA82724FEAD5
:100BF00012728A7142688C79C2F3074244EA9214F5
:100C00008C71C2F34014CC710E7202F001024A7270
:100C10008288C2F307224FEAD2148C72C2F3801486
:100C2000CC72C2F340140C73C2F300144C73C2F3C1
:100C300081048C7302F00302CA7300794FEA5000FA
:100C400008744B744FF00000F0BD426C0A60826C77
:100C50004A60C26C8A60026DCA60426D0A61826D30
:100C60004A61C26D8A61006EC8610020704770B52C
:100C70000446B0F8500000250104206800F011FC83
:100C800018B1A16B0143A16304E00021206800F0CA
:100C9000B4FA0546C5F3432070BD70B5040004D016
:100CA00094F83400002510B105E0012070BD2577CF
:100CB000204600F037F8032084F83400204600F086
:100CC00007F8A5632563012084F83400002070BD77
:100CD000FEB500250446C3200095CDE901502B4602
:100CE0002A462946206800F08EFA0D4E46F8A05F8D
:100CF000206800F09AFA012535600220FFF7C2FA59
:100D0000204600F0D6FD20B9204600F05FFD002807
:100D100005D084F83450A16B0143A1630120FEBDCE
:100D20000000304210B586B000210091019102917F
:100D300003910068174988422AD11748416941F454
:100D400080614161416901F480610491816941F0F0
:100D500010018161816901F010010491816941F004
:100D6000200181618069022400F0200004904FF48A
:100D70008850CDE90004694608480394FFF794FAC7
:100D80000420CDE90004694605480394FFF78CFA76
:100D900006B010BD0080014000100240001001406C
:100DA000001401402DE9F04F87B09A4617460E46D1
:100DB0000446DDF840B0FFF771FB00903EB194F8B7
:100DC0003400012807D0A06B40F000500FE0A06B6A
:100DD00040F000600BE04FF00008C4F83880E06D90
:100DE00007EB0A01814204D9A06B40F00070A063B8
:100DF0007DE0032084F834002068C0F82C80606C0B
:100E0000012800D07F024FF40071206800F05CFAE6
:100E100040F2FF59012530B12268C2F83890A16B29
:100E20000143A16361E04FF0FF3001904FEA4A2097
:100E30000290902003900220CDE90408069501A9B4
:100E4000206800F0C4F9BAF1010F06D9022020632E
:100E50003946206800F0AEFA04E025633946206880
:100E600000F0C1FA0028D7D140F22A382068416B3F
:100E700011EA080F22D1406B000409D50027206831
:100E800000F0D7F946F827007F1C082FF7D320364B
:100E9000BBF1000F05D0FFF701FB0099411A59453E
:100EA000E4D32168C1F83890A06B40F00040A06303
:100EB00084F83450032007B0BDE8F08F416BC905BA
:100EC00009D5BAF1010F06D9616C032903D000F0EE
:100ED00019FB0028A0D12068416B090709D5C0F88B
:100EE0003890A06B40F0080028E084F834500120CE
:100EF000E1E7416B890705D5C0F83890A06B40F059
:100F000002001BE0416B89061AD5C0F83890A06B2F
:100F100040F0200012E000BF00F08BF901C6BBF1E9
:100F2000000F05D0FFF7BAFA0099411A594507D3C7
:100F30002168C1F83890A06B40F00040A063D4E76E
:100F40002068416B8902E7D42168C1F8389084F8A1
:100F500034500020AFE700002DE9F04F87B09A46EB
:100F600016460D460446FFF799FA06903DB194F8EF
:100F70003400012807D0A06B40F000500DE0A06BBA
:100F800040F0006009E00020A063E26D06EB0A017A
:100F9000914204D9A06B40F00070A06390E003215F
:100FA00084F8341021688146C862606C012800D042
:100FB00076024FF40071206800F086F940F2FF5885
:100FC000012730B12268C2F83880A16B0143A163C8
:100FD00017E0BAF1010F06D92020206331462068BE
:100FE00000F0AAFA05E0102020633146206800F0E6
:100FF000BCFA060008D02168C1F83880A06B3043E5
:10100000A06384F834705BE04FF0FF3000904FEA4B
:101010004A200190902002904846CDE90407CDF87F
:101020000C90B9466946206800F0D1F840F21A3BAE
:1010300022E0406B40040AD55FF0000705EB870112
:10104000206800F009F97F1C082FF7D3203510988D
:1010500030B1FFF723FA0699411A109881420BD359
:101060002168C1F83880A06B3043A06384F83490C5
:10107000032007B0BDE8F08F2068416B11EA0B0F29
:10108000D7D0416BC9050FD5BAF1010F0CD9616CEE
:10109000032909D000F036FA30B12268C2F838804E
:1010A000A16B0143A16309E02068416B090709D5E1
:1010B000C0F83880A06B40F0080014E084F8349049
:1010C0000120D6E7416B890705D5C0F83880A06BB1
:1010D00040F0020007E0416BC0F83880C90604D533
:1010E000A06B40F01000A063E8E784F83490002083
:1010F000BFE710B5401EB0F1807F01D3012010BDC5
:101100004FF0E02460610F21601700F04FF80020DD
:10111000A06107202061002010BDFEE710B5044942
:101120000448FFF78BF80249491E087010BD000003
:1011300002000020DC30000830B585B000241848DB
:101140000094019402940394816941F080018161CB
:10115000816901F080010491816941F01001816190
:10116000816901F010010491816941F020018161E0
:1011700080690C4D00F02000049000224021284698
:10118000FFF786F9402000900120CDE901040220FC
:10119000039069462846FFF787F805B030BD000088
:1011A00000100240001C0140FEE770470907090ECD
:1011B000002806DA00F00F0000F1E02080F8141D8E
:1011C000704700F1E02080F80014704770470A680B
:1011D00042624A688262D1E902231A43D1E90431AA
:1011E0000B43C16A1A4321F0F7011143C162002089
:1011F0007047006800F00300704708B508441430D9
:101200000090006808BD70B50DF1100C11439CE80A
:1012100070002343194329434268314347F6FF6373
:101220009A430A434260002070BD03210160002000
:101230007047D0F8800070470A688260D1E90123C6
:101240001A43D1E903310B43C1681A436FF30B0111
:101250001143C160002070470968C0F88010002069
:10126000704710B586B004463720CDE90010402005
:101270000290002003904FF480600490694620465D
:10128000FFF7DAFF41F288323721204600F086F975
:1012900006B010BD10B504460A4886B001432920A7
:1012A000CDE9001040200290002003904FF48060B0
:1012B000049069462046FFF7BFFF204600F024FA5D
:1012C00006B010BD0000108010B586B00446102096
:1012D000CDE9001040200290002003904FF4806080
:1012E000049069462046FFF7A7FF41F2883210219B
:1012F000204600F053F906B010BD000030B585B0AF
:1013000000240546009401944FF480600294CDE9D6
:10131000034069462846FFF78FFF0B484FF4FA5108
:101320000068B0FBF1F041F288314843401E03D21F
:101330004FF0004005B030BD696B0906F6D540F2AC
:10134000FF50A8632046F5E71400002070B585B073
:1013500004464FF4D570009008204026CDE90106E0
:101360000025C001CDE9035069462046FFF764FF20
:101370000F484FF4FA510068B0FBF1F041F28831A8
:101380004843401E02D24FF000450DE0616B11F062
:10139000450FF6D0606B400702D5A663042503E035
:1013A000606B400600D5A66305B0284670BD0000FE
:1013B0001400002010B586B004461220CDE90010BC
:1013C00040200290002003904FF480600490694612
:1013D0002046FFF731FF41F288321221204600F00B
:1013E000DDF806B010BD10B586B004461120CDE979
:1013F000001040200290002003904FF48060049081
:1014000069462046FFF718FF41F288321121204635
:1014100000F0C4F806B010BD10B586B00446072031
:10142000CDE9002040200290002003904FF480601E
:10143000049069462046FFF7FFFE41F288320721FB
:10144000204600F0ABF806B010BD10B586B00446DB
:1014500000210220CDE90010C020CDE902014FF4A7
:101460008060049069462046FFF7E6FE204600F0C3
:1014700023F906B010BD10B586B004460920CDE9A9
:101480000010C0200290002003904FF48060049070
:1014900069462046FFF7D0FE204600F00DF906B061
:1014A00010BD10B586B004460D20CDE900104020D7
:1014B0000290002003904FF480600490694620461B
:1014C000FFF7BAFE41F288320D21204600F066F89F
:1014D00006B010BD30B585B00C460546002103208E
:1014E000CDE900104020CDE90201000104906946D9
:1014F0002846FFF7A1FE22460321284600F024F9E2
:1015000005B030BD10B586B0044600210C20CDE9F1
:1015100000104020CDE902010001049069462046F8
:10152000FFF78AFE034A0C21204600F037F806B088
:1015300010BD000000E1F50510B586B00446192085
:10154000CDE9001040200290002003904FF480600D
:10155000049069462046FFF76FFE41F28832192158
:10156000204600F01BF806B010BD10B586B004464A
:101570001820CDE9001040200290002003904FF485
:101580008060049069462046FFF756FE41F288329B
:101590001821204600F002F806B010BD444B10B5EB
:1015A0001B684FF4FA54B3FBF4F353435B1E02D2AF
:1015B0004FF0004010BD426B12F0450FF6D0426B69
:1015C000520703D504218163084610BD426BD20740
:1015D00002D00121816303E00269D2B28A4201D0C4
:1015E000012010BD40F2FF5181630021FFF705FE8D
:1015F0003049084201D1002010BD002802DA4FF026
:10160000007010BD410001D5402010BD810001D502
:10161000802010BDC10002D54FF4807010BD0101C3
:1016200002D54FF4007010BD410102D54FF4806027
:1016300010BDC10102D54FF4006010BD010202D5FA
:101640004FF4805010BD410202D54FF4005010BD40
:10165000810202D54FF4804010BDC10202D54FF483
:10166000004010BD410302D54FF4003010BD81038E
:1016700002D54FF4802010BDC10302D54FF40020E5
:1016800010BD010402D54FF4801010BD410402D5F5
:101690004FF4001010BD810402D54FF4800010BD3E
:1016A000000702D54FF4000010BD4FF4803010BD8C
:1016B0001400002008E0FFFD12494FF4FA520968B7
:1016C000B1FBF2F141F288325143491E02D24FF090
:1016D00000407047426B12F0450FF6D0416B49074E
:1016E00003D50421816308467047416BC90703D0C5
:1016F000012181630846704740F2FF518163002059
:1017000070470000140000200E494FF4FA52096897
:10171000B1FBF2F141F288325143491E02D24FF03F
:1017200000407047426B12F0450FF6D0416B4907FD
:1017300003D5042181630846704740F2FF5181635D
:1017400000207047140000201F4B10B51B684FF499
:10175000FA54B3FBF4F341F2883463435B1E02D2C4
:101760004FF0004010BD446B14F0450FF6D0436BB2
:101770005B0703D504218163084610BD436BDB077B
:1017800002D00121816303E00369DBB28B4201D007
:10179000012010BD40F2FF5181630021FFF72DFDB4
:1017A00010F4604F04D0410406D54FF4005010BD32
:1017B000000C1080002010BD000402D54FF48050B2
:1017C00010BD4FF4803010BD1400002010B590B053
:1017D00004460120ADF838002068FFF70AFD002814
:1017E00064D0606C032842D02068FFF72EFE0028EA
:1017F0005AD100212068FFF700FD606704212068AE
:10180000FFF7FBFCA06708212068FFF7F6FCE06704
:101810000C212068FFF7F1FCC4F88000606C0328FD
:1018200025D00EA92068FFF755FE00283CD1606C3A
:1018300003281CD0BDF83800206501042068FFF79C
:101840001AFE002830D100212068FFF7D6FC606620
:1018500004212068FFF7D1FCA06608212068FFF76B
:10186000CCFCE0660C212068FFF7C7FC2067042150
:101870002068FFF7C2FC000DE06403A92046FFF7D3
:10188000F7F8B4F85000002302042068FFF7C4FD05
:10189000002809D104F1100007C88DE8070094E87A
:1018A0000F00FFF7B0FC002010B010BD4FF08060BB
:1018B000FAE72DE9F8430025044600950068FFF794
:1018C0001DFD00281AD12068FFF740FD4FF08078F9
:1018D0004FF6FF76D8B14FF08057A5640098411CB1
:1018E0000091B0421AD000212068FFF7BAFC20B95D
:1018F00000212068FFF7CEFC10B13846BDE8F88320
:1019000000212068FFF779FCC00FE7D01FE0012716
:10191000A7640098411C0091B04201D14046EDE718
:1019200000212068FFF79DFC0028E7D14FF080419F
:101930002068FFF7AFFC0028E0D100212068FFF706
:101940005CFCC10FE5D0400001D5676400E0656430
:101950000020D3E710B5064C01202070FEF73AFCBA
:1019600018B9207820F001002070207810BD000008
:101970002000002010B5124888B014460078C00737
:1019800002D0032008B010BDB9B1012905D0022949
:1019900008D003290CD00420F4E76846FEF708FCC1
:1019A000069809E06846FEF703FC0798208004E0EB
:1019B0006846FEF7FDFB079820600020E2E7000084
:1019C000200000202DE9F0411E461746084601255B
:1019D000094C0A4B32463946FEF70EFC28B109E0A5
:1019E000641E02D20120BDE8F081FEF7E7FB00286B
:1019F000F6D100252846F6E7A086010000E1F505AE
:101A000010B5064C01202070FEF7D8FB18B92078DD
:101A100020F001002070207810BD00002000002080
:101A20002DE9F0411E46174608460125094C0A4B90
:101A300032463946FEF7F0FB28B109E0641E02D2B7
:101A40000120BDE8F081FEF7B9FB0028F6D10025A2
:101A50002846F6E7A086010000E1F5057047FEF78D
:101A600023BD30B58FB028216846FEF784FB1421D2
:101A70000AA8FEF780FB01210804CDE9001000242C
:101A8000029402250491CDE907504FF4E01009902B
:101A90006846FEF76BFE0F20CDE90A05A020CDE9D0
:101AA0000C0402210AA80E94FEF780FD0FB030BD91
:101AB0000D48016841F00101016041680B4A114085
:101AC000416001680A4A11400160016821F48021E7
:101AD0000160416821F4FE0141604FF41F01816003
:101AE0000449C00308607047001002400000FFF87E
:101AF000FFFFF6FE08ED00E0FEE702E008C8121F57
:101B000008C1002AFAD170477047002001E001C1E6
:101B1000121F002AFBD1704710B50446002084F83C
:101B20000402401EC4F82C02204601F0FBF808B164
:101B3000032010BDB4F8FE01A0F52A41553901D0AB
:101B4000022010BD94F83600B4F8371040EA0121A5
:101B50000848B0EB012F08D094F85210B4F8532085
:101B600041EA0221B0EB012F01D1002010BD01207C
:101B700010BD000000464154F0B50022184B144639
:101B800002EB420653F8265085B1D0F80072BD42F0
:101B90000DD103EB8605D0F808626F68B74206D115
:101BA0002D89B0F80662B54204D000E00124521C31
:101BB000022AE5D3022A01D079B904E05CB90229EE
:101BC00009D01220F0BD02EB420003EB80004089F7
:101BD000B0F5807F01D00020F0BD1020F0BD0000E6
:101BE0000405002030B50021064A0C4601EB4103F4
:101BF00052F82350854201D142F82340491C022962
:101C0000F4D330BD04050020D0F82422D0F800021F
:101C1000490A90F80202B1FBF0F0121D02CA19B194
:101C2000884203D3401AF8E700207047116808443F
:101C30007047D0F81422891E921E8A4201D80020D3
:101C40007047D0F8282290F8020201FB002070476C
:101C50002DE9F0410F00054606D000F02BFF0228C9
:101C60000BD20120BDE8F081D5F80C621EB1D5F889
:101C70001402B04208D8012606E0411CF2D0D5F883
:101C800014128142EED83E463446D5F81402641C44
:101C9000A04202D80224022E0AD32146284600F090
:101CA00009FF38B1411CDDD00128DBD0B442ECD1B2
:101CB0000020D7E76FF070422146284601F04DF82A
:101CC00030B957B122463946284601F046F820B1CE
:101CD000012812D001242046C4E7C5F80C42D5F8EB
:101CE0001002411CF7D0401EC5F8100295F80502FD
:101CF00040F0010085F80502EDE74FF0FF34EAE718
:101D00002DE9F04789460C6800E0641C21782F29F2
:101D1000FBD05C29F9D0D0F818520B22202128469C
:101D200000F0F9FF002001460B460826E25C5B1C30
:101D3000202A35D92F2A33D05C2A31D02E2A01D03F
:101D4000B04208D3082E38D12E2A36D108200B26CF
:101D50008906090EEAE7802A05D3244F41F00301E2
:101D60003A4412F8802C22A700E07F1C97F800C0AC
:101D7000BCF1000F02D09445F7D11EE0A2F141075B
:101D8000192F02D841F0020107E0A2F16107192FD3
:101D900003D8203A41F00101D2B22A54401CC5E7D1
:101DA0001C44C9F80040202A01D8042200E0002287
:101DB00018B12878E52803D004E00620BDE8F087B4
:101DC00005202870082E01D18806010E01F00300BD
:101DD000012801D142F01002C1F38100012801D194
:101DE00042F00802EA720020E8E700005C300008D8
:101DF000222A2B2C3A3B3C3D3E3F5B5D7C7F000022
:101E0000401E022815D20C4B00EB400203EB82016E
:101E10004889B0F5807F05D008B1401E80B2488166
:101E200010B104E00020FAE7002043F8220000206F
:101E30007047022070470000040500202DE9F041A2
:101E4000B0F806620446761C30040F46000C37D00A
:101E5000D4F8100298B3310773D1401CC4F81002B3
:101E6000D4F80C12D4F8000231B190F80222521EBC
:101E700012EA161F05D064E0B0F80802B0421FD97C
:101E80005FE000F017FE054601281ED9681C3AD015
:101E9000D4F80002D0F81412A94249D87FB1D4F87E
:101EA0000C12FFF7D5FE05000DD0012D0DD0681CDA
:101EB00029D0D4F8000201F083F820BB07E0FFE747
:101EC0000420BDE8F0810720FBE70220F9E74FF48A
:101ED00000720021D4F8000200F01DFF2946D4F85A
:101EE0000002FFF7A6FED4F8001200274FF0010809
:101EF000C1F82C0211E000BF80F80482D4F800027F
:101F000001F05EF808B10120DBE7D4F80002D0F858
:101F10002C12491C7F1CC0F82C12D4F8000290F837
:101F20000212B942E8D8D0F82C12C91BC0F82C1202
:101F3000C4F80C522946D4F80002FFF77AFEC4F820
:101F40001002A4F80662D4F8000206F00F0100EBBC
:101F50004110C4F814020020B3E770B50446002114
:101F600000F036F810E0D4F81012D4F8000200F0B7
:101F7000D9FE58B9D4F814020078E52809D040B148
:101F800001212046FFF75AFF0028ECD0042809D091
:101F900009E0D4F81012D4F8000200F0C3FE0500E6
:101FA00003D013E00720054610E0D4F814022022E5
:101FB000002104F5007400F0AEFED4E905010B2207
:101FC00000F0A0FE2168012081F80402284670BDBF
:101FD00070B5A0F80612D0F808320D460446012B61
:101FE00040D0D4F80002D0F8141299423AD933B94B
:101FF00090F80012032906D1D0F824321BB190F8D2
:102000000202060114E0B0F80812A9422AD9D0F859
:10201000240214E000F04EFD0346401C20D0022BA9
:1020200020D3D4F80002D0F8140298421AD9AD1B7C
:10203000D4F80002B5421946ECD2FFF7FAFDC4F815
:102040000C3278B100EB1510C4F81002D4F800027D
:1020500005F00F0100EB4110C4F81402002070BD20
:10206000012070BD022070BD084910B50B5C002234
:1020700053B901220A540A1801EB8000127A406811
:102080000168104688470246104610BD1C05002016
:1020900030B4054C231804EB80001B7A40680469B7
:1020A0001846A44630BC60471C05002030B4054DDE
:1020B0002C1805EB8000247A406885682046AC46E1
:1020C00030BC60471C050020044A111802EB800058
:1020D000097A406842680846104700001C05002045
:1020E00030B4054D2C1805EB8000247A4068C56893
:1020F0002046AC4630BC60471C05002010B50446A5
:1021000000F005FA00280DD1204600F089FF0028D4
:1021100008D1D4F82802FFF773FE002802D100216D
:10212000C4F8001210BD00002DE9F74181B09046BF
:1021300002980090684600F020FD040003D50B20B3
:1021400004B0BDE8F0810E4E002756F8245025B1AA
:102150002846FFF747FD85F800720198002801D056
:1021600080F8007246F8240002D0B8F1010F01D0C7
:102170000020E5E7002202A901A800F00FFBDFE73D
:102180001C0000202DE9F747ADF50B7D06000ED0B1
:102190004FF0000802F01F0727F001028CA980A869
:1021A000C6F8008200F0FAFA040005D0B4E0092075
:1021B0000DF50E7DBDE8F08788A8869068468C995D
:1021C00000F018FC859D04000BD11DB1780803D0E8
:1021D000012102E0062404E000216846FFF7CCFC60
:1021E000044617F01C0F5FD04FF0010AD4B1042C45
:1021F00013D100204A4902E0401C022805D200EB1E
:10220000400251F82220002AF6D1022804D0684664
:10221000FFF7A3FE044600E01224859D47F008075F
:1022200054B179E0E87A10F0110F01D0072473E07F
:10223000780701D508246FE0380743D500F09BFCF0
:10224000A873010AE973010C2974000E687485F8FB
:102250000B8085F81C8085F81D8085F81E8085F828
:102260001F802946809800F0F7FC8146002128460F
:1022700000F043FE8099B9F1000F81F804A21FD04D
:1022800080984946D0F82CA200F000FE040043D10B
:102290008099A9F10100C1F80C025146809800F024
:1022A00041FD04000AD037E0B4BBE87AC10601D58D
:1022B000042431E0B90701D5C007B7D1380701D5EB
:1022C00047F020078098D0F82C02C6E987057808E7
:1022D00001D0012100E00021684600F06DFCC6F845
:1022E0002802D8B186F8067286F807824746294642
:1022F00006F50076809800F0AFFC3061287FD5F8B5
:102300001D1040EA0120C6E90270B761776280982B
:102310003060B0F80602B080204649E70224FBE7AF
:10232000040500200FB42DE9F0479AB00DF1900993
:102330000290002003900DF154080490239810F8A7
:10234000011B2390002976D0252903D002A800F094
:1023500080FDF3E7002510F8011B2E46239030295D
:1023600002D02D2902D010E0012500E0022510F84E
:10237000011B239009E000BF06EB860001EB40063D
:102380002398303E10F8011B2390A1F1300009285A
:10239000F2D96C2901D04C2905D1239845F00405C8
:1023A00010F8011B2390002945D0A1F161000A46D5
:1023B000192801D8203AD2B24F2A42D006DC422A4C
:1023C0003DD0432A38D0442AC0D13CE0532A0DD016
:1023D000552A38D0582AB9D11023680701D4442A85
:1023E00033D059F8040B442A31D035E059F8047B36
:1023F000002400E0641C385D0028FBD1A80704D548
:102400000CE0202102A800F024FD2046641CB0420C
:10241000F7D303E002A87F1C00F01BFD39780029E8
:10242000F8D103E0202102A800F013FD2046641C2F
:10243000B04283D2F6E753E019F8041B86E7022383
:10244000CBE70823C9E70A23C7E759F8040B00289C
:1024500002DA404245F0080500244746B0FBF3F29B
:1024600003FB1202B0FBF3F0D2B2092A05D9782996
:1024700014D04FF0070C6244D2B230323A55641C8B
:1024800008B1102CEAD3280703D52D2008F8040042
:10249000641C2746E80704D0302003E04FF0270CE7
:1024A000E9E72020824603E0514602A800F0D1FC73
:1024B000A80703D438467F1CB042F5D34546641EB6
:1024C00002A8295D00F0C5FC002CF8D103E05146BC
:1024D00002A800F0BEFC38467F1CB042A9D2F6E745
:1024E0000398002810DB024601AB05A9029800F012
:1024F0006AF848B901990398884205D104981AB03E
:10250000BDE8F0075DF814FB4FF0FF30F7E770B55A
:10251000044600F085FD002811D194F806128A06C1
:102520000DD5480612D5D4F800020123214690F8B3
:102530000102D4F81822FFF7D3FD08B1012070BDC5
:1025400094F8060220F0400084F80602D4F81C1229
:10255000D4F8000200F0E6FB0028F0D1D4F82052B5
:10256000E87A40F02000E87294F80C022877B4F87A
:102570000C02000A6877D4F80C02000CA877D4F893
:102580000C02000EE877D4F81012284604F5007407
:1025900000F0B3FC00F0EFFAA875010AE975010C30
:1025A0002976000E68760020A874E874A07920F0DF
:1025B0002000A0712168012081F804022068BDE894
:1025C000704000F0A2BC2DE9F84F884600219946E2
:1025D00015460446196000F023FD002808D194F840
:1025E0000702002804D194F80602800702D40720CD
:1025F000BDE8F88FD4F80802012741194FF0020A0C
:1026000081427BD3B9E0D4F80812C80577D1D4F859
:10261000002292F80202401E00EA512010F0FF064C
:102620001ED131B1D4F8240240B12046FFF7ECFAB4
:1026300009E0D4F8100240B9002101E0D4F81412E6
:102640001046FFF705FB002858D001283DD0411C5B
:102650006CD0C4F81402D4F8101209B9C4F81002EE
:1026600094F80602400610D5D4F800020123214652
:1026700090F80102D4F81822FFF732FDE8BB94F875
:10268000060220F0400084F80602D4F81412D4F8B0
:102690000002FFF7CEFAC0B130440090680A5FEA4A
:1026A000000B30D0D4F8000206EB0B0290F80212B7
:1026B0008A4201D9A1EB060B90F801025B46414624
:1026C000009AFFF70DFDC0B903E084F807A20220CD
:1026D0008EE7D4F818120098081A58450CD208EB67
:1026E00040214FF40072204600F00CFB94F80602E3
:1026F00020F0400084F8060202E017E040E01CE011
:102700004FEA4B262DE0D4F818120098814211D0E0
:10271000D4E9820188420DD2D4F800020123214677
:1027200090F80102009AFFF7C1FC18B184F8077213
:1027300001205DE70098C4F81802B4F80802C0F35D
:102740000800C0F50076AE4200D92E46204432463D
:10275000414600F0D7FA94F8060240F0400084F8B1
:102760000602D4F80802B0443044C4F80802D9F88C
:1027700000008119AD1BC9F80010002D7FF443AF94
:10278000D4E98201884201D9C4F80C0294F8060207
:1027900040F0200084F80602002029E72DE9FF47D9
:1027A0004FF000090746C0F800901646084600F0B2
:1027B000E4F9050003D50B2004B0BDE8F0878A4892
:1027C00050F82540A4B13C6094F8000228B194F878
:1027D0000102FFF779FCC1070CD084F80092E8B23F
:1027E00084F80102FFF740FCC10708D00320E3E7AB
:1027F0000C20E1E70EB1400704D40020DCE71EB155
:10280000400701D50A20D7E7002529462046FFF7D3
:1028100083F9012823D100204FEA0D0704EB0011B2
:1028200091F8C22101F5DF712AB10A7AD1F80910B5
:1028300042EA012100E0002147F82010401C042852
:10284000ECD3002657F826502DB129462046FFF735
:1028500063F908B909E00220761C042EF2D303289C
:1028600001D0E0BB01E00120A6E7B4F80B00B0F511
:10287000007F60D1E28A2AB994F82400D4F82510A8
:1028800040EA0122C4F81822217C84F803120129AD
:1028900001D002294FD1607B514384F80202F0B18C
:1028A000431E184247D1B4F81130A4F808321E076D
:1028B00041D1B4F813602EB994F82060D4F8217097
:1028C00046EA0726B4F80EC0BCF1000F33D00CEB7B
:1028D000010707EB1317BE422DD3F61B00E02AE0D9
:1028E000B6FBF0F038B3012640F6F678404500D349
:1028F00002264FF6F678404500D30326801C2F446D
:10290000C4F82872AC44C4F81402C4E9875C032EEE
:1029100013D083B16144C4F82412022E19D000F000
:10292000010100EB400001EB500000BF00F2FF107E
:10293000B2EB502F0FD20D203EE7002BFBD194F8C5
:102940002C10D4F82D30800041EA0321C4F8241261
:10295000ECE74000EAE74FF0FF30C4F81002C4F89B
:102960000C02802084F80502032E30D1208E01282D
:102970002DD12046691C00F0D5F940BB84F80592A2
:10298000B4F8FE01A0F52A41553920D12078D4F8B9
:10299000011040EA01201549884218D194F8E40159
:1029A000D4F8E51140EA0120114988420FD194F88A
:1029B000E801D4F8E91140EA0120C4F8100294F8C3
:1029C000EC01D4F8ED1140EA0120C4F80C020649EC
:1029D00084F80062091F0888401C0880A4F80602D9
:1029E0002046FFF7FFF808E71C0000205252614123
:1029F0007272416173B50446019908782F2801D09D
:102A00005C2801D1491C01910025C4F808520198A5
:102A10000078202806D200212046FFF7D9FAC4F812
:102A200014527CBD01A92046FFF76AF90028F8D1AD
:102A300000212046FFF7CCFA20BB00BFD4F81012CB
:102A4000D4F8000200F06EF9E0B9D4F814120A7854
:102A500032B1CA7A12070FD40A23D4F8182203E03D
:102A600004200FE05B1E06D311F8015B12F8016B26
:102A7000AD1BF7D000E02DB100212046FFF7DEF9B5
:102A80000028DBD0D4F81812C97A28B10428C8D19C
:102A90004907C6D405207CBD4907FCD4D4F81412DC
:102AA000C87AC006F6D5D4F8000200F0D5F8C4F80C
:102AB0000802B7E72DE9F0410D46044602290DD37F
:102AC000D4F81402A84209D994F800024FF0FF3656
:102AD000012807D002282AD0032836D00126304604
:102AE000BDE8F081D4F8200205EB550700EB572133
:102AF000204600F017F90028F1D1C7F308007F1C29
:102B000014F80080D4F8200200EB5721204600F092
:102B100009F90028E3D1C7F30800215C48EA012045
:102B2000E90701D00609DAE7C0F30B06D7E7D4F8C6
:102B3000200200EB1521204600F0F4F80028CED149
:102B4000E8B204EB40000688C9E7D4F8200200EBA5
:102B5000D511204600F0E6F80028C0D140F2FF1061
:102B600000EA850020440178D0F8010041EA002005
:102B700020F07046B3E70020704710B504464FF0D0
:102B8000FF302268002A13D0114600E0491C0B7860
:102B9000212B0ED33A2BF9D112F8013B303B0A2BF3
:102BA00006D28A4204D1002B02D1491C184621606A
:102BB00010BD002010BD0000F0B50346254AD3F833
:102BC0000042002000EB400552F82560A6420BD1E0
:102BD00002EB8505D3F808626F68B74204D12D89EE
:102BE000B3F80662B54202D0401C0228EAD302289C
:102BF0001AD1002002E0401C022805D200EB40055B
:102C000052F82550002DF6D1022815D000EB4005D2
:102C100042F8254002EB8504D3F808626660B3F8F9
:102C20000632238100236381002900EB400102EB7F
:102C30008101498902D019B10020F0BD491C01E091
:102C40004FF4807100EB400302EB8302401C518182
:102C5000F0BD0000040500200246488B92F80022D7
:102C6000032A02D1898A40EA01407047FDF724FC1B
:102C7000FEF7F7FEFEF760FA1848174901600021D9
:102C800041608160C160016141618161FEF746FA86
:102C9000FDF7A0FAA0B91148012211A18430FFF775
:102CA00043FA104C0A2210A120701148FFF76AFA6B
:102CB000207010A10E48FFF735FB0D48FFF71EFAF4
:102CC0000F4C002240212046FDF7E2FB012240216B
:102CD0002046FDF7DDFBF4E70080014024000020E2
:102CE00000000000000000207961682E74787400F4
:102CF000D80200206861646973616D616E690000CB
:102D0000001C014004E000BF11F8013B00F8013B4A
:102D1000521EF9D27047C9B201E000F8011B521EE1
:102D2000FBD2704770B50546D0F82C020C46002641
:102D3000A04210D0284600F043F906000BD195F8C8
:102D40000102012322462946FFF7B0F908B1741E9B
:102D50000126C5F82C42304670BD2DE9F0471746D4
:102D60000D460446022903D3D4F81402A84202D81F
:102D70000220BDE8F08794F8001207F0FF084FF03A
:102D80000109012920D0022950D00329F0D1D4F81B
:102D9000200200EBD5112046FFF7C4FF0028E8D140
:102DA00040F2FF1101EA85010A194FF07043D2F891
:102DB000011003EA0121394311700B0A53700B0C07
:102DC0009370090ED17041E0D4F8200205EB55064E
:102DD00000EB56212046FFF7A5FF0028C9D1C6F316
:102DE0000800761C2044E90703D0017868F31F111E
:102DF00000E03946017084F80492D4F8200200EB18
:102E000056212046FFF78EFF0028B2D1C6F30801F5
:102E10002144EA0702D0C7F3071205E00A78C7F396
:102E2000032302F0F0021A430A700FE0D4F82002E4
:102E300000EB15212046FFF775FF002899D1E9B274
:102E400004EB41013A0A81F800804A7084F8049248
:102E50008FE738B545680446002D16DB60196D1CF8
:102E600001733D2D0DDB6B462A4604F10C012068F1
:102E7000FFF7A9FB0098A84201D1002501E04FF01F
:102E8000FF356560A068401CA06038BD2DE9F041A9
:102E90000F460646022917D3D6F81402B84213D9B2
:102EA000002523E039463046FFF704FE040021D018
:102EB000012C09D0601C09D0002239463046FFF7AA
:102EC0004CFF050016D103E0022513E0012511E0B7
:102ED000D6F81002411C08D0401CC6F8100296F823
:102EE000050240F0010086F805022746D6F81402D4
:102EF000B842D7D82846BDE8F08181760A0AC27662
:102F00000A0C0275090E4175704770B5044600F051
:102F100057F8050052D194F80002032846D194F8DE
:102F20000502012842D1420200212046FFF7F3FEAC
:102F3000552084F8FE01AA2084F8FF015220207059
:102F400060706120A0704121E170722284F8E42158
:102F500084F8E52184F8E61184F8E701D4F810023A
:102F600084F8E801010A84F8E911010C84F8EA11F7
:102F7000000E84F8EB01D4F80C0284F8EC01010A8D
:102F800084F8ED11010C84F8EE11000E84F8EF01C5
:102F9000D4F81C220123521CC4F82C2294F80102FC
:102FA0002146FFF79DF8002084F80502002294F8DE
:102FB00001021146FFF76CF800B10125284670BDEB
:102FC0002DE9F041044690F80402002728B3D4F814
:102FD0002C5294F8010201232A462146FFF780F87B
:102FE00008B1012719E0002084F80402D4F8200277
:102FF000D4F81812281A88420FD294F803620AE013
:10300000D4F818020123054494F801022A46214607
:10301000FFF766F8761E022EF2D23846BDE8F08140
:1030200010B588B1D0F8001271B191F800225AB1F0
:10303000B1F80622B0F80402824205D191F80102EB
:10304000FFF742F8C00700D0092010BD00000000C3
:10305000000000000102030406070809809A90B6E8
:103060008EB78F80D2D3D4D8D7DE8E8F909292E253
:1030700099E3EAEB59999A9D9C9D9E9FB5D6E0E90C
:10308000A5A5A6A7A8A9AAABAC21AEAFB0B1B2B313
:10309000B4B5B6B7B8B9BABBBCBDBEBFC0C1C2C378
:1030A000C4C5C7C7C8C9CACBCCCDCECFD0D1D2D367
:1030B000D4D5D6D7D8D9DADBDCDDDEDFE0E1E2E358
:1030C000E5E5E6E7E7E9EAEBEDEDEEEFF0F1F2F347
:1030D000F4F5F6F7F8F9FAFBFCFDFEFF55190008C8
:1030E000011A0008C5190008211A000875190008FE
:1030F000103100080000002024000000FA1A000827
:103100003431000824000020044500000A1B000898
:10311000000000000000000001000000100000009E
:103120000000000000A24A040000000000000000AF
:04313000010000009A
:0400000508000131BD
:00000001FF
